{
  "_format": "hh-sol-artifact-1",
  "contractName": "CreditChain",
  "sourceName": "contracts/CreditChain.sol",
  "abi": [
    {
      "anonymous": false,
      "inputs": [
        {
          "indexed": true,
          "internalType": "uint256",
          "name": "id",
          "type": "uint256"
        },
        {
          "indexed": false,
          "internalType": "string",
          "name": "tip",
          "type": "string"
        },
        {
          "indexed": false,
          "internalType": "string",
          "name": "body",
          "type": "string"
        },
        {
          "indexed": false,
          "internalType": "string",
          "name": "category",
          "type": "string"
        },
        {
          "indexed": false,
          "internalType": "string",
          "name": "hashedId",
          "type": "string"
        },
        {
          "indexed": false,
          "internalType": "uint256",
          "name": "createdAt",
          "type": "uint256"
        }
      ],
      "name": "InsightAdded",
      "type": "event"
    },
    {
      "anonymous": false,
      "inputs": [
        {
          "indexed": true,
          "internalType": "uint256",
          "name": "id",
          "type": "uint256"
        },
        {
          "indexed": false,
          "internalType": "uint256",
          "name": "newUpvoteCount",
          "type": "uint256"
        }
      ],
      "name": "InsightUpvoted",
      "type": "event"
    },
    {
      "inputs": [
        {
          "internalType": "string",
          "name": "_tip",
          "type": "string"
        },
        {
          "internalType": "string",
          "name": "_body",
          "type": "string"
        },
        {
          "internalType": "string",
          "name": "_category",
          "type": "string"
        },
        {
          "internalType": "string",
          "name": "_hashedId",
          "type": "string"
        }
      ],
      "name": "addInsight",
      "outputs": [],
      "stateMutability": "nonpayable",
      "type": "function"
    },
    {
      "inputs": [],
      "name": "getInsights",
      "outputs": [
        {
          "components": [
            {
              "internalType": "string",
              "name": "tip",
              "type": "string"
            },
            {
              "internalType": "string",
              "name": "body",
              "type": "string"
            },
            {
              "internalType": "string",
              "name": "category",
              "type": "string"
            },
            {
              "internalType": "string",
              "name": "hashedId",
              "type": "string"
            },
            {
              "internalType": "uint256",
              "name": "createdAt",
              "type": "uint256"
            },
            {
              "internalType": "uint256",
              "name": "upvotes",
              "type": "uint256"
            }
          ],
          "internalType": "struct CreditChain.Insight[]",
          "name": "",
          "type": "tuple[]"
        }
      ],
      "stateMutability": "view",
      "type": "function"
    },
    {
      "inputs": [
        {
          "internalType": "uint256",
          "name": "",
          "type": "uint256"
        },
        {
          "internalType": "address",
          "name": "",
          "type": "address"
        }
      ],
      "name": "hasUpvoted",
      "outputs": [
        {
          "internalType": "bool",
          "name": "",
          "type": "bool"
        }
      ],
      "stateMutability": "view",
      "type": "function"
    },
    {
      "inputs": [
        {
          "internalType": "uint256",
          "name": "",
          "type": "uint256"
        }
      ],
      "name": "insights",
      "outputs": [
        {
          "internalType": "string",
          "name": "tip",
          "type": "string"
        },
        {
          "internalType": "string",
          "name": "body",
          "type": "string"
        },
        {
          "internalType": "string",
          "name": "category",
          "type": "string"
        },
        {
          "internalType": "string",
          "name": "hashedId",
          "type": "string"
        },
        {
          "internalType": "uint256",
          "name": "createdAt",
          "type": "uint256"
        },
        {
          "internalType": "uint256",
          "name": "upvotes",
          "type": "uint256"
        }
      ],
      "stateMutability": "view",
      "type": "function"
    },
    {
      "inputs": [
        {
          "internalType": "uint256",
          "name": "id",
          "type": "uint256"
        }
      ],
      "name": "upvoteInsight",
      "outputs": [],
      "stateMutability": "nonpayable",
      "type": "function"
    }
  ],
  "bytecode": "0x6080604052348015600f57600080fd5b506115058061001f6000396000f3fe608060405234801561001057600080fd5b50600436106100575760003560e01c806319c9d3311461005c578063642c621a146100915780638227fa6f146100ad5780638c1cab5b146100c9578063a52c8658146100e7575b600080fd5b610076600480360381019061007191906109c5565b610117565b60405161008896959493929190610a91565b60405180910390f35b6100ab60048036038101906100a69190610c43565b610383565b005b6100c760048036038101906100c291906109c5565b6104a7565b005b6100d1610691565b6040516100de9190610ed3565b60405180910390f35b61010160048036038101906100fc9190610f53565b61094c565b60405161010e9190610fae565b60405180910390f35b6000818154811061012757600080fd5b906000526020600020906006020160009150905080600001805461014a90610ff8565b80601f016020809104026020016040519081016040528092919081815260200182805461017690610ff8565b80156101c35780601f10610198576101008083540402835291602001916101c3565b820191906000526020600020905b8154815290600101906020018083116101a657829003601f168201915b5050505050908060010180546101d890610ff8565b80601f016020809104026020016040519081016040528092919081815260200182805461020490610ff8565b80156102515780601f1061022657610100808354040283529160200191610251565b820191906000526020600020905b81548152906001019060200180831161023457829003601f168201915b50505050509080600201805461026690610ff8565b80601f016020809104026020016040519081016040528092919081815260200182805461029290610ff8565b80156102df5780601f106102b4576101008083540402835291602001916102df565b820191906000526020600020905b8154815290600101906020018083116102c257829003601f168201915b5050505050908060030180546102f490610ff8565b80601f016020809104026020016040519081016040528092919081815260200182805461032090610ff8565b801561036d5780601f106103425761010080835404028352916020019161036d565b820191906000526020600020905b81548152906001019060200180831161035057829003601f168201915b5050505050908060040154908060050154905086565b60006040518060c001604052808681526020018581526020018481526020018381526020014281526020016000815250908060018154018082558091505060019003906000526020600020906006020160009091909190915060008201518160000190816103f191906111d5565b50602082015181600101908161040791906111d5565b50604082015181600201908161041d91906111d5565b50606082015181600301908161043391906111d5565b506080820151816004015560a0820151816005015550506000600160008054905061045e91906112d6565b9050807f2be91afb2970a861dc8c9a52370edfde361f547148b2ba51bc06a53defac3054868686864260405161049895949392919061130a565b60405180910390a25050505050565b60008054905081106104ee576040517f08c379a00000000000000000000000000000000000000000000000000000000081526004016104e5906113c5565b60405180910390fd5b6001600082815260200190815260200160002060003373ffffffffffffffffffffffffffffffffffffffff1673ffffffffffffffffffffffffffffffffffffffff16815260200190815260200160002060009054906101000a900460ff161561058c576040517f08c379a000000000000000000000000000000000000000000000000000000000815260040161058390611431565b60405180910390fd5b6001600082815481106105a2576105a1611451565b5b906000526020600020906006020160050160008282546105c29190611480565b92505081905550600180600083815260200190815260200160002060003373ffffffffffffffffffffffffffffffffffffffff1673ffffffffffffffffffffffffffffffffffffffff16815260200190815260200160002060006101000a81548160ff021916908315150217905550807fc02040968b296fa7dfb64710e8e08925c73af2d181208dff755ffee7faa705a86000838154811061066757610666611451565b5b90600052602060002090600602016005015460405161068691906114b4565b60405180910390a250565b60606000805480602002602001604051908101604052809291908181526020016000905b8282101561094357838290600052602060002090600602016040518060c00160405290816000820180546106e890610ff8565b80601f016020809104026020016040519081016040528092919081815260200182805461071490610ff8565b80156107615780601f1061073657610100808354040283529160200191610761565b820191906000526020600020905b81548152906001019060200180831161074457829003601f168201915b5050505050815260200160018201805461077a90610ff8565b80601f01602080910402602001604051908101604052809291908181526020018280546107a690610ff8565b80156107f35780601f106107c8576101008083540402835291602001916107f3565b820191906000526020600020905b8154815290600101906020018083116107d657829003601f168201915b5050505050815260200160028201805461080c90610ff8565b80601f016020809104026020016040519081016040528092919081815260200182805461083890610ff8565b80156108855780601f1061085a57610100808354040283529160200191610885565b820191906000526020600020905b81548152906001019060200180831161086857829003601f168201915b5050505050815260200160038201805461089e90610ff8565b80601f01602080910402602001604051908101604052809291908181526020018280546108ca90610ff8565b80156109175780601f106108ec57610100808354040283529160200191610917565b820191906000526020600020905b8154815290600101906020018083116108fa57829003601f168201915b5050505050815260200160048201548152602001600582015481525050815260200190600101906106b5565b50505050905090565b60016020528160005260406000206020528060005260406000206000915091509054906101000a900460ff1681565b6000604051905090565b600080fd5b600080fd5b6000819050919050565b6109a28161098f565b81146109ad57600080fd5b50565b6000813590506109bf81610999565b92915050565b6000602082840312156109db576109da610985565b5b60006109e9848285016109b0565b91505092915050565b600081519050919050565b600082825260208201905092915050565b60005b83811015610a2c578082015181840152602081019050610a11565b60008484015250505050565b6000601f19601f8301169050919050565b6000610a54826109f2565b610a5e81856109fd565b9350610a6e818560208601610a0e565b610a7781610a38565b840191505092915050565b610a8b8161098f565b82525050565b600060c0820190508181036000830152610aab8189610a49565b90508181036020830152610abf8188610a49565b90508181036040830152610ad38187610a49565b90508181036060830152610ae78186610a49565b9050610af66080830185610a82565b610b0360a0830184610a82565b979650505050505050565b600080fd5b600080fd5b7f4e487b7100000000000000000000000000000000000000000000000000000000600052604160045260246000fd5b610b5082610a38565b810181811067ffffffffffffffff82111715610b6f57610b6e610b18565b5b80604052505050565b6000610b8261097b565b9050610b8e8282610b47565b919050565b600067ffffffffffffffff821115610bae57610bad610b18565b5b610bb782610a38565b9050602081019050919050565b82818337600083830152505050565b6000610be6610be184610b93565b610b78565b905082815260208101848484011115610c0257610c01610b13565b5b610c0d848285610bc4565b509392505050565b600082601f830112610c2a57610c29610b0e565b5b8135610c3a848260208601610bd3565b91505092915050565b60008060008060808587031215610c5d57610c5c610985565b5b600085013567ffffffffffffffff811115610c7b57610c7a61098a565b5b610c8787828801610c15565b945050602085013567ffffffffffffffff811115610ca857610ca761098a565b5b610cb487828801610c15565b935050604085013567ffffffffffffffff811115610cd557610cd461098a565b5b610ce187828801610c15565b925050606085013567ffffffffffffffff811115610d0257610d0161098a565b5b610d0e87828801610c15565b91505092959194509250565b600081519050919050565b600082825260208201905092915050565b6000819050602082019050919050565b600082825260208201905092915050565b6000610d62826109f2565b610d6c8185610d46565b9350610d7c818560208601610a0e565b610d8581610a38565b840191505092915050565b610d998161098f565b82525050565b600060c0830160008301518482036000860152610dbc8282610d57565b91505060208301518482036020860152610dd68282610d57565b91505060408301518482036040860152610df08282610d57565b91505060608301518482036060860152610e0a8282610d57565b9150506080830151610e1f6080860182610d90565b5060a0830151610e3260a0860182610d90565b508091505092915050565b6000610e498383610d9f565b905092915050565b6000602082019050919050565b6000610e6982610d1a565b610e738185610d25565b935083602082028501610e8585610d36565b8060005b85811015610ec15784840389528151610ea28582610e3d565b9450610ead83610e51565b925060208a01995050600181019050610e89565b50829750879550505050505092915050565b60006020820190508181036000830152610eed8184610e5e565b905092915050565b600073ffffffffffffffffffffffffffffffffffffffff82169050919050565b6000610f2082610ef5565b9050919050565b610f3081610f15565b8114610f3b57600080fd5b50565b600081359050610f4d81610f27565b92915050565b60008060408385031215610f6a57610f69610985565b5b6000610f78858286016109b0565b9250506020610f8985828601610f3e565b9150509250929050565b60008115159050919050565b610fa881610f93565b82525050565b6000602082019050610fc36000830184610f9f565b92915050565b7f4e487b7100000000000000000000000000000000000000000000000000000000600052602260045260246000fd5b6000600282049050600182168061101057607f821691505b60208210810361102357611022610fc9565b5b50919050565b60008190508160005260206000209050919050565b60006020601f8301049050919050565b600082821b905092915050565b60006008830261108b7fffffffffffffffffffffffffffffffffffffffffffffffffffffffffffffffff8261104e565b611095868361104e565b95508019841693508086168417925050509392505050565b6000819050919050565b60006110d26110cd6110c88461098f565b6110ad565b61098f565b9050919050565b6000819050919050565b6110ec836110b7565b6111006110f8826110d9565b84845461105b565b825550505050565b600090565b611115611108565b6111208184846110e3565b505050565b5b818110156111445761113960008261110d565b600181019050611126565b5050565b601f8211156111895761115a81611029565b6111638461103e565b81016020851015611172578190505b61118661117e8561103e565b830182611125565b50505b505050565b600082821c905092915050565b60006111ac6000198460080261118e565b1980831691505092915050565b60006111c5838361119b565b9150826002028217905092915050565b6111de826109f2565b67ffffffffffffffff8111156111f7576111f6610b18565b5b6112018254610ff8565b61120c828285611148565b600060209050601f83116001811461123f576000841561122d578287015190505b61123785826111b9565b86555061129f565b601f19841661124d86611029565b60005b8281101561127557848901518255600182019150602085019450602081019050611250565b86831015611292578489015161128e601f89168261119b565b8355505b6001600288020188555050505b505050505050565b7f4e487b7100000000000000000000000000000000000000000000000000000000600052601160045260246000fd5b60006112e18261098f565b91506112ec8361098f565b9250828203905081811115611304576113036112a7565b5b92915050565b600060a08201905081810360008301526113248188610a49565b905081810360208301526113388187610a49565b9050818103604083015261134c8186610a49565b905081810360608301526113608185610a49565b905061136f6080830184610a82565b9695505050505050565b7f496e736967687420646f6573206e6f7420657869737400000000000000000000600082015250565b60006113af6016836109fd565b91506113ba82611379565b602082019050919050565b600060208201905081810360008301526113de816113a2565b9050919050565b7f416c7265616479207570766f7465640000000000000000000000000000000000600082015250565b600061141b600f836109fd565b9150611426826113e5565b602082019050919050565b6000602082019050818103600083015261144a8161140e565b9050919050565b7f4e487b7100000000000000000000000000000000000000000000000000000000600052603260045260246000fd5b600061148b8261098f565b91506114968361098f565b92508282019050808211156114ae576114ad6112a7565b5b92915050565b60006020820190506114c96000830184610a82565b9291505056fea26469706673582212204e636db232fe92a44e79032c4e9a35d88a42196eee4b0f8094e9ac9b2a84deaf64736f6c634300081c0033",
  "linkReferences": {},
  "deployedLinkReferences": {}
}