{
  "_format": "hh-sol-artifact-1",
  "contractName": "CreditChain",
  "sourceName": "contracts/CreditChain.sol",
  "abi": [
    {
      "anonymous": false,
      "inputs": [
        {
          "indexed": false,
          "internalType": "string",
          "name": "tip",
          "type": "string"
        },
        {
          "indexed": false,
          "internalType": "string",
          "name": "category",
          "type": "string"
        },
        {
          "indexed": false,
          "internalType": "string",
          "name": "hashedId",
          "type": "string"
        },
        {
          "indexed": false,
          "internalType": "uint256",
          "name": "timestamp",
          "type": "uint256"
        }
      ],
      "name": "InsightAdded",
      "type": "event"
    },
    {
      "anonymous": false,
      "inputs": [
        {
          "indexed": false,
          "internalType": "uint256",
          "name": "index",
          "type": "uint256"
        },
        {
          "indexed": false,
          "internalType": "uint256",
          "name": "newUpvoteCount",
          "type": "uint256"
        }
      ],
      "name": "InsightUpvoted",
      "type": "event"
    },
    {
      "inputs": [
        {
          "internalType": "string",
          "name": "_tip",
          "type": "string"
        },
        {
          "internalType": "string",
          "name": "_category",
          "type": "string"
        },
        {
          "internalType": "string",
          "name": "_hashedId",
          "type": "string"
        }
      ],
      "name": "addInsight",
      "outputs": [],
      "stateMutability": "nonpayable",
      "type": "function"
    },
    {
      "inputs": [],
      "name": "getInsights",
      "outputs": [
        {
          "components": [
            {
              "internalType": "string",
              "name": "tip",
              "type": "string"
            },
            {
              "internalType": "string",
              "name": "category",
              "type": "string"
            },
            {
              "internalType": "string",
              "name": "hashedId",
              "type": "string"
            },
            {
              "internalType": "uint256",
              "name": "timestamp",
              "type": "uint256"
            },
            {
              "internalType": "uint256",
              "name": "upvotes",
              "type": "uint256"
            }
          ],
          "internalType": "struct CreditChain.Insight[]",
          "name": "",
          "type": "tuple[]"
        }
      ],
      "stateMutability": "view",
      "type": "function"
    },
    {
      "inputs": [
        {
          "internalType": "uint256",
          "name": "",
          "type": "uint256"
        },
        {
          "internalType": "address",
          "name": "",
          "type": "address"
        }
      ],
      "name": "hasUpvoted",
      "outputs": [
        {
          "internalType": "bool",
          "name": "",
          "type": "bool"
        }
      ],
      "stateMutability": "view",
      "type": "function"
    },
    {
      "inputs": [
        {
          "internalType": "uint256",
          "name": "",
          "type": "uint256"
        }
      ],
      "name": "insights",
      "outputs": [
        {
          "internalType": "string",
          "name": "tip",
          "type": "string"
        },
        {
          "internalType": "string",
          "name": "category",
          "type": "string"
        },
        {
          "internalType": "string",
          "name": "hashedId",
          "type": "string"
        },
        {
          "internalType": "uint256",
          "name": "timestamp",
          "type": "uint256"
        },
        {
          "internalType": "uint256",
          "name": "upvotes",
          "type": "uint256"
        }
      ],
      "stateMutability": "view",
      "type": "function"
    },
    {
      "inputs": [
        {
          "internalType": "uint256",
          "name": "index",
          "type": "uint256"
        }
      ],
      "name": "upvoteInsight",
      "outputs": [],
      "stateMutability": "nonpayable",
      "type": "function"
    }
  ],
  "bytecode": "0x6080604052348015600f57600080fd5b506113148061001f6000396000f3fe608060405234801561001057600080fd5b50600436106100575760003560e01c806319c9d3311461005c5780634d728879146100905780638227fa6f146100ac5780638c1cab5b146100c8578063a52c8658146100e6575b600080fd5b6100766004803603810190610071919061086e565b610116565b60405161008795949392919061093a565b60405180910390f35b6100aa60048036038101906100a59190610ad7565b6102f4565b005b6100c660048036038101906100c1919061086e565b6103e1565b005b6100d06105cc565b6040516100dd9190610d1d565b60405180910390f35b61010060048036038101906100fb9190610d9d565b6107f5565b60405161010d9190610df8565b60405180910390f35b6000818154811061012657600080fd5b906000526020600020906005020160009150905080600001805461014990610e42565b80601f016020809104026020016040519081016040528092919081815260200182805461017590610e42565b80156101c25780601f10610197576101008083540402835291602001916101c2565b820191906000526020600020905b8154815290600101906020018083116101a557829003601f168201915b5050505050908060010180546101d790610e42565b80601f016020809104026020016040519081016040528092919081815260200182805461020390610e42565b80156102505780601f1061022557610100808354040283529160200191610250565b820191906000526020600020905b81548152906001019060200180831161023357829003601f168201915b50505050509080600201805461026590610e42565b80601f016020809104026020016040519081016040528092919081815260200182805461029190610e42565b80156102de5780601f106102b3576101008083540402835291602001916102de565b820191906000526020600020905b8154815290600101906020018083116102c157829003601f168201915b5050505050908060030154908060040154905085565b60006040518060a0016040528085815260200184815260200183815260200142815260200160008152509080600181540180825580915050600190039060005260206000209060050201600090919091909150600082015181600001908161035c919061101f565b506020820151816001019081610372919061101f565b506040820151816002019081610388919061101f565b50606082015181600301556080820151816004015550507ff4a9c90f33ea85f36f4ac7a0a2797b5331c3b60586fa91fb75add76fcce7703f838383426040516103d494939291906110f1565b60405180910390a1505050565b6000805490508110610428576040517f08c379a000000000000000000000000000000000000000000000000000000000815260040161041f90611197565b60405180910390fd5b6001600082815260200190815260200160002060003373ffffffffffffffffffffffffffffffffffffffff1673ffffffffffffffffffffffffffffffffffffffff16815260200190815260200160002060009054906101000a900460ff16156104c6576040517f08c379a00000000000000000000000000000000000000000000000000000000081526004016104bd90611203565b60405180910390fd5b6001600082815481106104dc576104db611223565b5b906000526020600020906005020160040160008282546104fc9190611281565b92505081905550600180600083815260200190815260200160002060003373ffffffffffffffffffffffffffffffffffffffff1673ffffffffffffffffffffffffffffffffffffffff16815260200190815260200160002060006101000a81548160ff0219169083151502179055507fc02040968b296fa7dfb64710e8e08925c73af2d181208dff755ffee7faa705a881600083815481106105a1576105a0611223565b5b9060005260206000209060050201600401546040516105c19291906112b5565b60405180910390a150565b60606000805480602002602001604051908101604052809291908181526020016000905b828210156107ec57838290600052602060002090600502016040518060a001604052908160008201805461062390610e42565b80601f016020809104026020016040519081016040528092919081815260200182805461064f90610e42565b801561069c5780601f106106715761010080835404028352916020019161069c565b820191906000526020600020905b81548152906001019060200180831161067f57829003601f168201915b505050505081526020016001820180546106b590610e42565b80601f01602080910402602001604051908101604052809291908181526020018280546106e190610e42565b801561072e5780601f106107035761010080835404028352916020019161072e565b820191906000526020600020905b81548152906001019060200180831161071157829003601f168201915b5050505050815260200160028201805461074790610e42565b80601f016020809104026020016040519081016040528092919081815260200182805461077390610e42565b80156107c05780601f10610795576101008083540402835291602001916107c0565b820191906000526020600020905b8154815290600101906020018083116107a357829003601f168201915b5050505050815260200160038201548152602001600482015481525050815260200190600101906105f0565b50505050905090565b60016020528160005260406000206020528060005260406000206000915091509054906101000a900460ff1681565b6000604051905090565b600080fd5b600080fd5b6000819050919050565b61084b81610838565b811461085657600080fd5b50565b60008135905061086881610842565b92915050565b6000602082840312156108845761088361082e565b5b600061089284828501610859565b91505092915050565b600081519050919050565b600082825260208201905092915050565b60005b838110156108d55780820151818401526020810190506108ba565b60008484015250505050565b6000601f19601f8301169050919050565b60006108fd8261089b565b61090781856108a6565b93506109178185602086016108b7565b610920816108e1565b840191505092915050565b61093481610838565b82525050565b600060a082019050818103600083015261095481886108f2565b9050818103602083015261096881876108f2565b9050818103604083015261097c81866108f2565b905061098b606083018561092b565b610998608083018461092b565b9695505050505050565b600080fd5b600080fd5b7f4e487b7100000000000000000000000000000000000000000000000000000000600052604160045260246000fd5b6109e4826108e1565b810181811067ffffffffffffffff82111715610a0357610a026109ac565b5b80604052505050565b6000610a16610824565b9050610a2282826109db565b919050565b600067ffffffffffffffff821115610a4257610a416109ac565b5b610a4b826108e1565b9050602081019050919050565b82818337600083830152505050565b6000610a7a610a7584610a27565b610a0c565b905082815260208101848484011115610a9657610a956109a7565b5b610aa1848285610a58565b509392505050565b600082601f830112610abe57610abd6109a2565b5b8135610ace848260208601610a67565b91505092915050565b600080600060608486031215610af057610aef61082e565b5b600084013567ffffffffffffffff811115610b0e57610b0d610833565b5b610b1a86828701610aa9565b935050602084013567ffffffffffffffff811115610b3b57610b3a610833565b5b610b4786828701610aa9565b925050604084013567ffffffffffffffff811115610b6857610b67610833565b5b610b7486828701610aa9565b9150509250925092565b600081519050919050565b600082825260208201905092915050565b6000819050602082019050919050565b600082825260208201905092915050565b6000610bc68261089b565b610bd08185610baa565b9350610be08185602086016108b7565b610be9816108e1565b840191505092915050565b610bfd81610838565b82525050565b600060a0830160008301518482036000860152610c208282610bbb565b91505060208301518482036020860152610c3a8282610bbb565b91505060408301518482036040860152610c548282610bbb565b9150506060830151610c696060860182610bf4565b506080830151610c7c6080860182610bf4565b508091505092915050565b6000610c938383610c03565b905092915050565b6000602082019050919050565b6000610cb382610b7e565b610cbd8185610b89565b935083602082028501610ccf85610b9a565b8060005b85811015610d0b5784840389528151610cec8582610c87565b9450610cf783610c9b565b925060208a01995050600181019050610cd3565b50829750879550505050505092915050565b60006020820190508181036000830152610d378184610ca8565b905092915050565b600073ffffffffffffffffffffffffffffffffffffffff82169050919050565b6000610d6a82610d3f565b9050919050565b610d7a81610d5f565b8114610d8557600080fd5b50565b600081359050610d9781610d71565b92915050565b60008060408385031215610db457610db361082e565b5b6000610dc285828601610859565b9250506020610dd385828601610d88565b9150509250929050565b60008115159050919050565b610df281610ddd565b82525050565b6000602082019050610e0d6000830184610de9565b92915050565b7f4e487b7100000000000000000000000000000000000000000000000000000000600052602260045260246000fd5b60006002820490506001821680610e5a57607f821691505b602082108103610e6d57610e6c610e13565b5b50919050565b60008190508160005260206000209050919050565b60006020601f8301049050919050565b600082821b905092915050565b600060088302610ed57fffffffffffffffffffffffffffffffffffffffffffffffffffffffffffffffff82610e98565b610edf8683610e98565b95508019841693508086168417925050509392505050565b6000819050919050565b6000610f1c610f17610f1284610838565b610ef7565b610838565b9050919050565b6000819050919050565b610f3683610f01565b610f4a610f4282610f23565b848454610ea5565b825550505050565b600090565b610f5f610f52565b610f6a818484610f2d565b505050565b5b81811015610f8e57610f83600082610f57565b600181019050610f70565b5050565b601f821115610fd357610fa481610e73565b610fad84610e88565b81016020851015610fbc578190505b610fd0610fc885610e88565b830182610f6f565b50505b505050565b600082821c905092915050565b6000610ff660001984600802610fd8565b1980831691505092915050565b600061100f8383610fe5565b9150826002028217905092915050565b6110288261089b565b67ffffffffffffffff811115611041576110406109ac565b5b61104b8254610e42565b611056828285610f92565b600060209050601f8311600181146110895760008415611077578287015190505b6110818582611003565b8655506110e9565b601f19841661109786610e73565b60005b828110156110bf5784890151825560018201915060208501945060208101905061109a565b868310156110dc57848901516110d8601f891682610fe5565b8355505b6001600288020188555050505b505050505050565b6000608082019050818103600083015261110b81876108f2565b9050818103602083015261111f81866108f2565b9050818103604083015261113381856108f2565b9050611142606083018461092b565b95945050505050565b7f496e736967687420646f6573206e6f7420657869737400000000000000000000600082015250565b60006111816016836108a6565b915061118c8261114b565b602082019050919050565b600060208201905081810360008301526111b081611174565b9050919050565b7f416c7265616479207570766f7465640000000000000000000000000000000000600082015250565b60006111ed600f836108a6565b91506111f8826111b7565b602082019050919050565b6000602082019050818103600083015261121c816111e0565b9050919050565b7f4e487b7100000000000000000000000000000000000000000000000000000000600052603260045260246000fd5b7f4e487b7100000000000000000000000000000000000000000000000000000000600052601160045260246000fd5b600061128c82610838565b915061129783610838565b92508282019050808211156112af576112ae611252565b5b92915050565b60006040820190506112ca600083018561092b565b6112d7602083018461092b565b939250505056fea2646970667358221220b2d0f64e04716f1201de4f39aa7679aac7847e7af75a9e779d61f120c7ce626964736f6c634300081c0033",
  "linkReferences": {},
  "deployedLinkReferences": {}
}