{
  "_format": "hh-sol-artifact-1",
  "contractName": "CreditChain",
  "sourceName": "contracts/CreditChain.sol",
  "abi": [
    {
      "anonymous": false,
      "inputs": [
        {
          "indexed": false,
          "internalType": "string",
          "name": "tip",
          "type": "string"
        },
        {
          "indexed": false,
          "internalType": "string",
          "name": "body",
          "type": "string"
        },
        {
          "indexed": false,
          "internalType": "string",
          "name": "category",
          "type": "string"
        },
        {
          "indexed": false,
          "internalType": "string",
          "name": "hashedId",
          "type": "string"
        },
        {
          "indexed": false,
          "internalType": "uint256",
          "name": "timestamp",
          "type": "uint256"
        }
      ],
      "name": "InsightAdded",
      "type": "event"
    },
    {
      "anonymous": false,
      "inputs": [
        {
          "indexed": false,
          "internalType": "uint256",
          "name": "index",
          "type": "uint256"
        },
        {
          "indexed": false,
          "internalType": "uint256",
          "name": "newUpvoteCount",
          "type": "uint256"
        }
      ],
      "name": "InsightUpvoted",
      "type": "event"
    },
    {
      "inputs": [
        {
          "internalType": "string",
          "name": "_tip",
          "type": "string"
        },
        {
          "internalType": "string",
          "name": "_body",
          "type": "string"
        },
        {
          "internalType": "string",
          "name": "_category",
          "type": "string"
        },
        {
          "internalType": "string",
          "name": "_hashedId",
          "type": "string"
        }
      ],
      "name": "addInsight",
      "outputs": [],
      "stateMutability": "nonpayable",
      "type": "function"
    },
    {
      "inputs": [],
      "name": "getInsights",
      "outputs": [
        {
          "components": [
            {
              "internalType": "string",
              "name": "tip",
              "type": "string"
            },
            {
              "internalType": "string",
              "name": "body",
              "type": "string"
            },
            {
              "internalType": "string",
              "name": "category",
              "type": "string"
            },
            {
              "internalType": "string",
              "name": "hashedId",
              "type": "string"
            },
            {
              "internalType": "uint256",
              "name": "timestamp",
              "type": "uint256"
            },
            {
              "internalType": "uint256",
              "name": "upvotes",
              "type": "uint256"
            }
          ],
          "internalType": "struct CreditChain.Insight[]",
          "name": "",
          "type": "tuple[]"
        }
      ],
      "stateMutability": "view",
      "type": "function"
    },
    {
      "inputs": [
        {
          "internalType": "uint256",
          "name": "",
          "type": "uint256"
        },
        {
          "internalType": "address",
          "name": "",
          "type": "address"
        }
      ],
      "name": "hasUpvoted",
      "outputs": [
        {
          "internalType": "bool",
          "name": "",
          "type": "bool"
        }
      ],
      "stateMutability": "view",
      "type": "function"
    },
    {
      "inputs": [
        {
          "internalType": "uint256",
          "name": "",
          "type": "uint256"
        }
      ],
      "name": "insights",
      "outputs": [
        {
          "internalType": "string",
          "name": "tip",
          "type": "string"
        },
        {
          "internalType": "string",
          "name": "body",
          "type": "string"
        },
        {
          "internalType": "string",
          "name": "category",
          "type": "string"
        },
        {
          "internalType": "string",
          "name": "hashedId",
          "type": "string"
        },
        {
          "internalType": "uint256",
          "name": "timestamp",
          "type": "uint256"
        },
        {
          "internalType": "uint256",
          "name": "upvotes",
          "type": "uint256"
        }
      ],
      "stateMutability": "view",
      "type": "function"
    },
    {
      "inputs": [
        {
          "internalType": "uint256",
          "name": "index",
          "type": "uint256"
        }
      ],
      "name": "upvoteInsight",
      "outputs": [],
      "stateMutability": "nonpayable",
      "type": "function"
    }
  ],
  "bytecode": "0x6080604052348015600f57600080fd5b506114c88061001f6000396000f3fe608060405234801561001057600080fd5b50600436106100575760003560e01c806319c9d3311461005c578063642c621a146100915780638227fa6f146100ad5780638c1cab5b146100c9578063a52c8658146100e7575b600080fd5b610076600480360381019061007191906109ae565b610117565b60405161008896959493929190610a7a565b60405180910390f35b6100ab60048036038101906100a69190610c2c565b610383565b005b6100c760048036038101906100c291906109ae565b61048f565b005b6100d161067a565b6040516100de9190610ebc565b60405180910390f35b61010160048036038101906100fc9190610f3c565b610935565b60405161010e9190610f97565b60405180910390f35b6000818154811061012757600080fd5b906000526020600020906006020160009150905080600001805461014a90610fe1565b80601f016020809104026020016040519081016040528092919081815260200182805461017690610fe1565b80156101c35780601f10610198576101008083540402835291602001916101c3565b820191906000526020600020905b8154815290600101906020018083116101a657829003601f168201915b5050505050908060010180546101d890610fe1565b80601f016020809104026020016040519081016040528092919081815260200182805461020490610fe1565b80156102515780601f1061022657610100808354040283529160200191610251565b820191906000526020600020905b81548152906001019060200180831161023457829003601f168201915b50505050509080600201805461026690610fe1565b80601f016020809104026020016040519081016040528092919081815260200182805461029290610fe1565b80156102df5780601f106102b4576101008083540402835291602001916102df565b820191906000526020600020905b8154815290600101906020018083116102c257829003601f168201915b5050505050908060030180546102f490610fe1565b80601f016020809104026020016040519081016040528092919081815260200182805461032090610fe1565b801561036d5780601f106103425761010080835404028352916020019161036d565b820191906000526020600020905b81548152906001019060200180831161035057829003601f168201915b5050505050908060040154908060050154905086565b60006040518060c001604052808681526020018581526020018481526020018381526020014281526020016000815250908060018154018082558091505060019003906000526020600020906006020160009091909190915060008201518160000190816103f191906111be565b50602082015181600101908161040791906111be565b50604082015181600201908161041d91906111be565b50606082015181600301908161043391906111be565b506080820151816004015560a0820151816005015550507fd9eff8f469916f67ecaffdabd300e40de8791cc6128eb7e214f511204e3d8f228484848442604051610481959493929190611290565b60405180910390a150505050565b60008054905081106104d6576040517f08c379a00000000000000000000000000000000000000000000000000000000081526004016104cd9061134b565b60405180910390fd5b6001600082815260200190815260200160002060003373ffffffffffffffffffffffffffffffffffffffff1673ffffffffffffffffffffffffffffffffffffffff16815260200190815260200160002060009054906101000a900460ff1615610574576040517f08c379a000000000000000000000000000000000000000000000000000000000815260040161056b906113b7565b60405180910390fd5b60016000828154811061058a576105896113d7565b5b906000526020600020906006020160050160008282546105aa9190611435565b92505081905550600180600083815260200190815260200160002060003373ffffffffffffffffffffffffffffffffffffffff1673ffffffffffffffffffffffffffffffffffffffff16815260200190815260200160002060006101000a81548160ff0219169083151502179055507fc02040968b296fa7dfb64710e8e08925c73af2d181208dff755ffee7faa705a8816000838154811061064f5761064e6113d7565b5b90600052602060002090600602016005015460405161066f929190611469565b60405180910390a150565b60606000805480602002602001604051908101604052809291908181526020016000905b8282101561092c57838290600052602060002090600602016040518060c00160405290816000820180546106d190610fe1565b80601f01602080910402602001604051908101604052809291908181526020018280546106fd90610fe1565b801561074a5780601f1061071f5761010080835404028352916020019161074a565b820191906000526020600020905b81548152906001019060200180831161072d57829003601f168201915b5050505050815260200160018201805461076390610fe1565b80601f016020809104026020016040519081016040528092919081815260200182805461078f90610fe1565b80156107dc5780601f106107b1576101008083540402835291602001916107dc565b820191906000526020600020905b8154815290600101906020018083116107bf57829003601f168201915b505050505081526020016002820180546107f590610fe1565b80601f016020809104026020016040519081016040528092919081815260200182805461082190610fe1565b801561086e5780601f106108435761010080835404028352916020019161086e565b820191906000526020600020905b81548152906001019060200180831161085157829003601f168201915b5050505050815260200160038201805461088790610fe1565b80601f01602080910402602001604051908101604052809291908181526020018280546108b390610fe1565b80156109005780601f106108d557610100808354040283529160200191610900565b820191906000526020600020905b8154815290600101906020018083116108e357829003601f168201915b50505050508152602001600482015481526020016005820154815250508152602001906001019061069e565b50505050905090565b60016020528160005260406000206020528060005260406000206000915091509054906101000a900460ff1681565b6000604051905090565b600080fd5b600080fd5b6000819050919050565b61098b81610978565b811461099657600080fd5b50565b6000813590506109a881610982565b92915050565b6000602082840312156109c4576109c361096e565b5b60006109d284828501610999565b91505092915050565b600081519050919050565b600082825260208201905092915050565b60005b83811015610a155780820151818401526020810190506109fa565b60008484015250505050565b6000601f19601f8301169050919050565b6000610a3d826109db565b610a4781856109e6565b9350610a578185602086016109f7565b610a6081610a21565b840191505092915050565b610a7481610978565b82525050565b600060c0820190508181036000830152610a948189610a32565b90508181036020830152610aa88188610a32565b90508181036040830152610abc8187610a32565b90508181036060830152610ad08186610a32565b9050610adf6080830185610a6b565b610aec60a0830184610a6b565b979650505050505050565b600080fd5b600080fd5b7f4e487b7100000000000000000000000000000000000000000000000000000000600052604160045260246000fd5b610b3982610a21565b810181811067ffffffffffffffff82111715610b5857610b57610b01565b5b80604052505050565b6000610b6b610964565b9050610b778282610b30565b919050565b600067ffffffffffffffff821115610b9757610b96610b01565b5b610ba082610a21565b9050602081019050919050565b82818337600083830152505050565b6000610bcf610bca84610b7c565b610b61565b905082815260208101848484011115610beb57610bea610afc565b5b610bf6848285610bad565b509392505050565b600082601f830112610c1357610c12610af7565b5b8135610c23848260208601610bbc565b91505092915050565b60008060008060808587031215610c4657610c4561096e565b5b600085013567ffffffffffffffff811115610c6457610c63610973565b5b610c7087828801610bfe565b945050602085013567ffffffffffffffff811115610c9157610c90610973565b5b610c9d87828801610bfe565b935050604085013567ffffffffffffffff811115610cbe57610cbd610973565b5b610cca87828801610bfe565b925050606085013567ffffffffffffffff811115610ceb57610cea610973565b5b610cf787828801610bfe565b91505092959194509250565b600081519050919050565b600082825260208201905092915050565b6000819050602082019050919050565b600082825260208201905092915050565b6000610d4b826109db565b610d558185610d2f565b9350610d658185602086016109f7565b610d6e81610a21565b840191505092915050565b610d8281610978565b82525050565b600060c0830160008301518482036000860152610da58282610d40565b91505060208301518482036020860152610dbf8282610d40565b91505060408301518482036040860152610dd98282610d40565b91505060608301518482036060860152610df38282610d40565b9150506080830151610e086080860182610d79565b5060a0830151610e1b60a0860182610d79565b508091505092915050565b6000610e328383610d88565b905092915050565b6000602082019050919050565b6000610e5282610d03565b610e5c8185610d0e565b935083602082028501610e6e85610d1f565b8060005b85811015610eaa5784840389528151610e8b8582610e26565b9450610e9683610e3a565b925060208a01995050600181019050610e72565b50829750879550505050505092915050565b60006020820190508181036000830152610ed68184610e47565b905092915050565b600073ffffffffffffffffffffffffffffffffffffffff82169050919050565b6000610f0982610ede565b9050919050565b610f1981610efe565b8114610f2457600080fd5b50565b600081359050610f3681610f10565b92915050565b60008060408385031215610f5357610f5261096e565b5b6000610f6185828601610999565b9250506020610f7285828601610f27565b9150509250929050565b60008115159050919050565b610f9181610f7c565b82525050565b6000602082019050610fac6000830184610f88565b92915050565b7f4e487b7100000000000000000000000000000000000000000000000000000000600052602260045260246000fd5b60006002820490506001821680610ff957607f821691505b60208210810361100c5761100b610fb2565b5b50919050565b60008190508160005260206000209050919050565b60006020601f8301049050919050565b600082821b905092915050565b6000600883026110747fffffffffffffffffffffffffffffffffffffffffffffffffffffffffffffffff82611037565b61107e8683611037565b95508019841693508086168417925050509392505050565b6000819050919050565b60006110bb6110b66110b184610978565b611096565b610978565b9050919050565b6000819050919050565b6110d5836110a0565b6110e96110e1826110c2565b848454611044565b825550505050565b600090565b6110fe6110f1565b6111098184846110cc565b505050565b5b8181101561112d576111226000826110f6565b60018101905061110f565b5050565b601f8211156111725761114381611012565b61114c84611027565b8101602085101561115b578190505b61116f61116785611027565b83018261110e565b50505b505050565b600082821c905092915050565b600061119560001984600802611177565b1980831691505092915050565b60006111ae8383611184565b9150826002028217905092915050565b6111c7826109db565b67ffffffffffffffff8111156111e0576111df610b01565b5b6111ea8254610fe1565b6111f5828285611131565b600060209050601f8311600181146112285760008415611216578287015190505b61122085826111a2565b865550611288565b601f19841661123686611012565b60005b8281101561125e57848901518255600182019150602085019450602081019050611239565b8683101561127b5784890151611277601f891682611184565b8355505b6001600288020188555050505b505050505050565b600060a08201905081810360008301526112aa8188610a32565b905081810360208301526112be8187610a32565b905081810360408301526112d28186610a32565b905081810360608301526112e68185610a32565b90506112f56080830184610a6b565b9695505050505050565b7f496e736967687420646f6573206e6f7420657869737400000000000000000000600082015250565b60006113356016836109e6565b9150611340826112ff565b602082019050919050565b6000602082019050818103600083015261136481611328565b9050919050565b7f416c7265616479207570766f7465640000000000000000000000000000000000600082015250565b60006113a1600f836109e6565b91506113ac8261136b565b602082019050919050565b600060208201905081810360008301526113d081611394565b9050919050565b7f4e487b7100000000000000000000000000000000000000000000000000000000600052603260045260246000fd5b7f4e487b7100000000000000000000000000000000000000000000000000000000600052601160045260246000fd5b600061144082610978565b915061144b83610978565b925082820190508082111561146357611462611406565b5b92915050565b600060408201905061147e6000830185610a6b565b61148b6020830184610a6b565b939250505056fea2646970667358221220b855fd15c5b27ae9c1b9039c689ecc004b3989a9b34ef98f9c1b5e8066f3591764736f6c634300081c0033",
  "linkReferences": {},
  "deployedLinkReferences": {}
}